{
  "_format": "hh-sol-artifact-1",
  "contractName": "Linking",
  "sourceName": "contracts/Linking.sol",
  "abi": [
    {
      "inputs": [],
      "stateMutability": "nonpayable",
      "type": "constructor"
    },
    {
      "anonymous": false,
      "inputs": [
        {
          "indexed": true,
          "internalType": "address",
          "name": "wallet",
          "type": "address"
        },
        {
          "indexed": false,
          "internalType": "string",
          "name": "publicKey",
          "type": "string"
        },
        {
          "indexed": false,
          "internalType": "uint256",
          "name": "timestamp",
          "type": "uint256"
        }
      ],
      "name": "KeysLinked",
      "type": "event"
    },
    {
      "anonymous": false,
      "inputs": [
        {
          "indexed": true,
          "internalType": "address",
          "name": "newOwner",
          "type": "address"
        },
        {
          "indexed": true,
          "internalType": "address",
          "name": "addedBy",
          "type": "address"
        }
      ],
      "name": "OwnerAdded",
      "type": "event"
    },
    {
      "anonymous": false,
      "inputs": [
        {
          "indexed": true,
          "internalType": "address",
          "name": "removedOwner",
          "type": "address"
        },
        {
          "indexed": true,
          "internalType": "address",
          "name": "removedBy",
          "type": "address"
        }
      ],
      "name": "OwnerRemoved",
      "type": "event"
    },
    {
      "inputs": [
        {
          "internalType": "address",
          "name": "_newOwner",
          "type": "address"
        }
      ],
      "name": "addOwner",
      "outputs": [],
      "stateMutability": "nonpayable",
      "type": "function"
    },
    {
      "inputs": [
        {
          "internalType": "address",
          "name": "_walletAddress",
          "type": "address"
        }
      ],
      "name": "getLinkTimestamp",
      "outputs": [
        {
          "internalType": "uint256",
          "name": "",
          "type": "uint256"
        }
      ],
      "stateMutability": "view",
      "type": "function"
    },
    {
      "inputs": [
        {
          "internalType": "address",
          "name": "_walletAddress",
          "type": "address"
        }
      ],
      "name": "getPrivateKey",
      "outputs": [
        {
          "internalType": "string",
          "name": "",
          "type": "string"
        }
      ],
      "stateMutability": "view",
      "type": "function"
    },
    {
      "inputs": [
        {
          "internalType": "address",
          "name": "_walletAddress",
          "type": "address"
        }
      ],
      "name": "getPublicKey",
      "outputs": [
        {
          "internalType": "string",
          "name": "",
          "type": "string"
        }
      ],
      "stateMutability": "view",
      "type": "function"
    },
    {
      "inputs": [
        {
          "internalType": "address",
          "name": "_walletAddress",
          "type": "address"
        }
      ],
      "name": "hasLinkedKeys",
      "outputs": [
        {
          "internalType": "bool",
          "name": "",
          "type": "bool"
        }
      ],
      "stateMutability": "view",
      "type": "function"
    },
    {
      "inputs": [
        {
          "internalType": "address",
          "name": "_address",
          "type": "address"
        }
      ],
      "name": "isOwner",
      "outputs": [
        {
          "internalType": "bool",
          "name": "",
          "type": "bool"
        }
      ],
      "stateMutability": "view",
      "type": "function"
    },
    {
      "inputs": [
        {
          "internalType": "string",
          "name": "_privateKey",
          "type": "string"
        },
        {
          "internalType": "string",
          "name": "_publicKey",
          "type": "string"
        }
      ],
      "name": "linkKeys",
      "outputs": [],
      "stateMutability": "nonpayable",
      "type": "function"
    },
    {
      "inputs": [
        {
          "internalType": "address",
          "name": "_walletAddress",
          "type": "address"
        },
        {
          "internalType": "string",
          "name": "_privateKey",
          "type": "string"
        },
        {
          "internalType": "string",
          "name": "_publicKey",
          "type": "string"
        }
      ],
      "name": "linkKeysForAddress",
      "outputs": [],
      "stateMutability": "nonpayable",
      "type": "function"
    },
    {
      "inputs": [
        {
          "internalType": "address",
          "name": "_owner",
          "type": "address"
        }
      ],
      "name": "removeOwner",
      "outputs": [],
      "stateMutability": "nonpayable",
      "type": "function"
    }
  ],
  "bytecode": "0x6080604052348015600f57600080fd5b5060018060003373ffffffffffffffffffffffffffffffffffffffff1673ffffffffffffffffffffffffffffffffffffffff16815260200190815260200160002060006101000a81548160ff0219169083151502179055503373ffffffffffffffffffffffffffffffffffffffff163373ffffffffffffffffffffffffffffffffffffffff167fc82bdbbf677a2462f2a7e22e4ba9abd209496b69cd7b868b3b1d28f76e09a40a60405160405180910390a361154a806100d06000396000f3fe608060405234801561001057600080fd5b50600436106100935760003560e01c80635addbbaf116100665780635addbbaf146101305780637065cb481461014c578063857cdbb814610168578063c444124b14610198578063d0f9b3dc146101c857610093565b8063120ac4f314610098578063173825d9146100b45780631db22304146100d05780632f54bf6e14610100575b600080fd5b6100b260048036038101906100ad9190610e1b565b6101f8565b005b6100ce60048036038101906100c99190610ea6565b6103da565b005b6100ea60048036038101906100e59190610ea6565b610615565b6040516100f79190610eec565b60405180910390f35b61011a60048036038101906101159190610ea6565b610660565b6040516101279190610f22565b60405180910390f35b61014a60048036038101906101459190610f3d565b6106b6565b005b61016660048036038101906101619190610ea6565b61079c565b005b610182600480360381019061017d9190610ea6565b6109d8565b60405161018f9190611034565b60405180910390f35b6101b260048036038101906101ad9190610ea6565b610aab565b6040516101bf9190610f22565b60405180910390f35b6101e260048036038101906101dd9190610ea6565b610b04565b6040516101ef9190611034565b60405180910390f35b600160003373ffffffffffffffffffffffffffffffffffffffff1673ffffffffffffffffffffffffffffffffffffffff16815260200190815260200160002060009054906101000a900460ff16610284576040517f08c379a000000000000000000000000000000000000000000000000000000000815260040161027b906110a2565b60405180910390fd5b600073ffffffffffffffffffffffffffffffffffffffff168373ffffffffffffffffffffffffffffffffffffffff16036102f3576040517f08c379a00000000000000000000000000000000000000000000000000000000081526004016102ea9061110e565b60405180910390fd5b6040518060600160405280838152602001828152602001428152506000808573ffffffffffffffffffffffffffffffffffffffff1673ffffffffffffffffffffffffffffffffffffffff1681526020019081526020016000206000820151816000019081610361919061133a565b506020820151816001019081610377919061133a565b50604082015181600201559050508273ffffffffffffffffffffffffffffffffffffffff167fc13c11a4f230c3319d8459b55d853973cddb271d1ef97904351c88dfacfd54a382426040516103cd92919061140c565b60405180910390a2505050565b600160003373ffffffffffffffffffffffffffffffffffffffff1673ffffffffffffffffffffffffffffffffffffffff16815260200190815260200160002060009054906101000a900460ff16610466576040517f08c379a000000000000000000000000000000000000000000000000000000000815260040161045d906110a2565b60405180910390fd5b3373ffffffffffffffffffffffffffffffffffffffff168173ffffffffffffffffffffffffffffffffffffffff16036104d4576040517f08c379a00000000000000000000000000000000000000000000000000000000081526004016104cb90611488565b60405180910390fd5b600160008273ffffffffffffffffffffffffffffffffffffffff1673ffffffffffffffffffffffffffffffffffffffff16815260200190815260200160002060009054906101000a900460ff16610560576040517f08c379a0000000000000000000000000000000000000000000000000000000008152600401610557906110a2565b60405180910390fd5b6000600160008373ffffffffffffffffffffffffffffffffffffffff1673ffffffffffffffffffffffffffffffffffffffff16815260200190815260200160002060006101000a81548160ff0219169083151502179055503373ffffffffffffffffffffffffffffffffffffffff168173ffffffffffffffffffffffffffffffffffffffff167fe594d081b4382713733fe631966432c9cea5199afb2db5c3c1931f9f9300367960405160405180910390a350565b60008060008373ffffffffffffffffffffffffffffffffffffffff1673ffffffffffffffffffffffffffffffffffffffff168152602001908152602001600020600201549050919050565b6000600160008373ffffffffffffffffffffffffffffffffffffffff1673ffffffffffffffffffffffffffffffffffffffff16815260200190815260200160002060009054906101000a900460ff169050919050565b6040518060600160405280838152602001828152602001428152506000803373ffffffffffffffffffffffffffffffffffffffff1673ffffffffffffffffffffffffffffffffffffffff1681526020019081526020016000206000820151816000019081610724919061133a565b50602082015181600101908161073a919061133a565b50604082015181600201559050503373ffffffffffffffffffffffffffffffffffffffff167fc13c11a4f230c3319d8459b55d853973cddb271d1ef97904351c88dfacfd54a3824260405161079092919061140c565b60405180910390a25050565b600160003373ffffffffffffffffffffffffffffffffffffffff1673ffffffffffffffffffffffffffffffffffffffff16815260200190815260200160002060009054906101000a900460ff16610828576040517f08c379a000000000000000000000000000000000000000000000000000000000815260040161081f906110a2565b60405180910390fd5b600073ffffffffffffffffffffffffffffffffffffffff168173ffffffffffffffffffffffffffffffffffffffff1603610897576040517f08c379a000000000000000000000000000000000000000000000000000000000815260040161088e9061110e565b60405180910390fd5b600160008273ffffffffffffffffffffffffffffffffffffffff1673ffffffffffffffffffffffffffffffffffffffff16815260200190815260200160002060009054906101000a900460ff1615610924576040517f08c379a000000000000000000000000000000000000000000000000000000000815260040161091b906114f4565b60405180910390fd5b60018060008373ffffffffffffffffffffffffffffffffffffffff1673ffffffffffffffffffffffffffffffffffffffff16815260200190815260200160002060006101000a81548160ff0219169083151502179055503373ffffffffffffffffffffffffffffffffffffffff168173ffffffffffffffffffffffffffffffffffffffff167fc82bdbbf677a2462f2a7e22e4ba9abd209496b69cd7b868b3b1d28f76e09a40a60405160405180910390a350565b60606000808373ffffffffffffffffffffffffffffffffffffffff1673ffffffffffffffffffffffffffffffffffffffff1681526020019081526020016000206001018054610a269061115d565b80601f0160208091040260200160405190810160405280929190818152602001828054610a529061115d565b8015610a9f5780601f10610a7457610100808354040283529160200191610a9f565b820191906000526020600020905b815481529060010190602001808311610a8257829003601f168201915b50505050509050919050565b6000806000808473ffffffffffffffffffffffffffffffffffffffff1673ffffffffffffffffffffffffffffffffffffffff1681526020019081526020016000206001018054610afa9061115d565b9050119050919050565b6060600160003373ffffffffffffffffffffffffffffffffffffffff1673ffffffffffffffffffffffffffffffffffffffff16815260200190815260200160002060009054906101000a900460ff16610b92576040517f08c379a0000000000000000000000000000000000000000000000000000000008152600401610b89906110a2565b60405180910390fd5b6000808373ffffffffffffffffffffffffffffffffffffffff1673ffffffffffffffffffffffffffffffffffffffff1681526020019081526020016000206000018054610bde9061115d565b80601f0160208091040260200160405190810160405280929190818152602001828054610c0a9061115d565b8015610c575780601f10610c2c57610100808354040283529160200191610c57565b820191906000526020600020905b815481529060010190602001808311610c3a57829003601f168201915b50505050509050919050565b6000604051905090565b600080fd5b600080fd5b600073ffffffffffffffffffffffffffffffffffffffff82169050919050565b6000610ca282610c77565b9050919050565b610cb281610c97565b8114610cbd57600080fd5b50565b600081359050610ccf81610ca9565b92915050565b600080fd5b600080fd5b6000601f19601f8301169050919050565b7f4e487b7100000000000000000000000000000000000000000000000000000000600052604160045260246000fd5b610d2882610cdf565b810181811067ffffffffffffffff82111715610d4757610d46610cf0565b5b80604052505050565b6000610d5a610c63565b9050610d668282610d1f565b919050565b600067ffffffffffffffff821115610d8657610d85610cf0565b5b610d8f82610cdf565b9050602081019050919050565b82818337600083830152505050565b6000610dbe610db984610d6b565b610d50565b905082815260208101848484011115610dda57610dd9610cda565b5b610de5848285610d9c565b509392505050565b600082601f830112610e0257610e01610cd5565b5b8135610e12848260208601610dab565b91505092915050565b600080600060608486031215610e3457610e33610c6d565b5b6000610e4286828701610cc0565b935050602084013567ffffffffffffffff811115610e6357610e62610c72565b5b610e6f86828701610ded565b925050604084013567ffffffffffffffff811115610e9057610e8f610c72565b5b610e9c86828701610ded565b9150509250925092565b600060208284031215610ebc57610ebb610c6d565b5b6000610eca84828501610cc0565b91505092915050565b6000819050919050565b610ee681610ed3565b82525050565b6000602082019050610f016000830184610edd565b92915050565b60008115159050919050565b610f1c81610f07565b82525050565b6000602082019050610f376000830184610f13565b92915050565b60008060408385031215610f5457610f53610c6d565b5b600083013567ffffffffffffffff811115610f7257610f71610c72565b5b610f7e85828601610ded565b925050602083013567ffffffffffffffff811115610f9f57610f9e610c72565b5b610fab85828601610ded565b9150509250929050565b600081519050919050565b600082825260208201905092915050565b60005b83811015610fef578082015181840152602081019050610fd4565b60008484015250505050565b600061100682610fb5565b6110108185610fc0565b9350611020818560208601610fd1565b61102981610cdf565b840191505092915050565b6000602082019050818103600083015261104e8184610ffb565b905092915050565b7f4e6f7420616e206f776e65720000000000000000000000000000000000000000600082015250565b600061108c600c83610fc0565b915061109782611056565b602082019050919050565b600060208201905081810360008301526110bb8161107f565b9050919050565b7f496e76616c696420616464726573730000000000000000000000000000000000600082015250565b60006110f8600f83610fc0565b9150611103826110c2565b602082019050919050565b60006020820190508181036000830152611127816110eb565b9050919050565b7f4e487b7100000000000000000000000000000000000000000000000000000000600052602260045260246000fd5b6000600282049050600182168061117557607f821691505b6020821081036111885761118761112e565b5b50919050565b60008190508160005260206000209050919050565b60006020601f8301049050919050565b600082821b905092915050565b6000600883026111f07fffffffffffffffffffffffffffffffffffffffffffffffffffffffffffffffff826111b3565b6111fa86836111b3565b95508019841693508086168417925050509392505050565b6000819050919050565b600061123761123261122d84610ed3565b611212565b610ed3565b9050919050565b6000819050919050565b6112518361121c565b61126561125d8261123e565b8484546111c0565b825550505050565b600090565b61127a61126d565b611285818484611248565b505050565b5b818110156112a95761129e600082611272565b60018101905061128b565b5050565b601f8211156112ee576112bf8161118e565b6112c8846111a3565b810160208510156112d7578190505b6112eb6112e3856111a3565b83018261128a565b50505b505050565b600082821c905092915050565b6000611311600019846008026112f3565b1980831691505092915050565b600061132a8383611300565b9150826002028217905092915050565b61134382610fb5565b67ffffffffffffffff81111561135c5761135b610cf0565b5b611366825461115d565b6113718282856112ad565b600060209050601f8311600181146113a45760008415611392578287015190505b61139c858261131e565b865550611404565b601f1984166113b28661118e565b60005b828110156113da578489015182556001820191506020850194506020810190506113b5565b868310156113f757848901516113f3601f891682611300565b8355505b6001600288020188555050505b505050505050565b600060408201905081810360008301526114268185610ffb565b90506114356020830184610edd565b9392505050565b7f43616e6e6f742072656d6f76652073656c660000000000000000000000000000600082015250565b6000611472601283610fc0565b915061147d8261143c565b602082019050919050565b600060208201905081810360008301526114a181611465565b9050919050565b7f416c726561647920616e206f776e657200000000000000000000000000000000600082015250565b60006114de601083610fc0565b91506114e9826114a8565b602082019050919050565b6000602082019050818103600083015261150d816114d1565b905091905056fea26469706673582212209fdb3b70a5872880643a048f492007aff124e86a4c60d3a9c4ea8a9ce019cd4d64736f6c634300081c0033",
  "linkReferences": {},
  "deployedLinkReferences": {}
}