{
  "_format": "hh-sol-artifact-1",
  "contractName": "Linking",
  "sourceName": "contracts/Linking.sol",
  "abi": [
    {
      "anonymous": false,
      "inputs": [
        {
          "indexed": true,
          "internalType": "address",
          "name": "wallet",
          "type": "address"
        },
        {
          "indexed": false,
          "internalType": "string",
          "name": "publicKey",
          "type": "string"
        },
        {
          "indexed": false,
          "internalType": "uint256",
          "name": "timestamp",
          "type": "uint256"
        }
      ],
      "name": "KeysLinked",
      "type": "event"
    },
    {
      "inputs": [],
      "name": "getLinkTimestamp",
      "outputs": [
        {
          "internalType": "uint256",
          "name": "",
          "type": "uint256"
        }
      ],
      "stateMutability": "view",
      "type": "function"
    },
    {
      "inputs": [],
      "name": "getPrivateKey",
      "outputs": [
        {
          "internalType": "string",
          "name": "",
          "type": "string"
        }
      ],
      "stateMutability": "view",
      "type": "function"
    },
    {
      "inputs": [],
      "name": "getPublicKey",
      "outputs": [
        {
          "internalType": "string",
          "name": "",
          "type": "string"
        }
      ],
      "stateMutability": "view",
      "type": "function"
    },
    {
      "inputs": [],
      "name": "hasLinkedKeys",
      "outputs": [
        {
          "internalType": "bool",
          "name": "",
          "type": "bool"
        }
      ],
      "stateMutability": "view",
      "type": "function"
    },
    {
      "inputs": [
        {
          "internalType": "string",
          "name": "_privateKey",
          "type": "string"
        },
        {
          "internalType": "string",
          "name": "_publicKey",
          "type": "string"
        }
      ],
      "name": "linkKeys",
      "outputs": [],
      "stateMutability": "nonpayable",
      "type": "function"
    }
  ],
  "bytecode": "0x6080604052348015600f57600080fd5b50610a398061001f6000396000f3fe608060405234801561001057600080fd5b50600436106100575760003560e01c80631a7542ab1461005c5780632e3344521461007a5780635addbbaf1461009857806361f0b25f146100b4578063bdd9bbb5146100d2575b600080fd5b6100646100f0565b6040516100719190610433565b60405180910390f35b610082610147565b60405161008f91906104de565b60405180910390f35b6100b260048036038101906100ad9190610649565b610218565b005b6100bc6102fe565b6040516100c991906104de565b60405180910390f35b6100da6103cf565b6040516100e791906106da565b60405180910390f35b6000806000803373ffffffffffffffffffffffffffffffffffffffff1673ffffffffffffffffffffffffffffffffffffffff168152602001908152602001600020600101805461013f90610724565b905011905090565b60606000803373ffffffffffffffffffffffffffffffffffffffff1673ffffffffffffffffffffffffffffffffffffffff168152602001908152602001600020600101805461019590610724565b80601f01602080910402602001604051908101604052809291908181526020018280546101c190610724565b801561020e5780601f106101e35761010080835404028352916020019161020e565b820191906000526020600020905b8154815290600101906020018083116101f157829003601f168201915b5050505050905090565b6040518060600160405280838152602001828152602001428152506000803373ffffffffffffffffffffffffffffffffffffffff1673ffffffffffffffffffffffffffffffffffffffff16815260200190815260200160002060008201518160000190816102869190610901565b50602082015181600101908161029c9190610901565b50604082015181600201559050503373ffffffffffffffffffffffffffffffffffffffff167fc13c11a4f230c3319d8459b55d853973cddb271d1ef97904351c88dfacfd54a382426040516102f29291906109d3565b60405180910390a25050565b60606000803373ffffffffffffffffffffffffffffffffffffffff1673ffffffffffffffffffffffffffffffffffffffff168152602001908152602001600020600001805461034c90610724565b80601f016020809104026020016040519081016040528092919081815260200182805461037890610724565b80156103c55780601f1061039a576101008083540402835291602001916103c5565b820191906000526020600020905b8154815290600101906020018083116103a857829003601f168201915b5050505050905090565b60008060003373ffffffffffffffffffffffffffffffffffffffff1673ffffffffffffffffffffffffffffffffffffffff16815260200190815260200160002060020154905090565b60008115159050919050565b61042d81610418565b82525050565b60006020820190506104486000830184610424565b92915050565b600081519050919050565b600082825260208201905092915050565b60005b8381101561048857808201518184015260208101905061046d565b60008484015250505050565b6000601f19601f8301169050919050565b60006104b08261044e565b6104ba8185610459565b93506104ca81856020860161046a565b6104d381610494565b840191505092915050565b600060208201905081810360008301526104f881846104a5565b905092915050565b6000604051905090565b600080fd5b600080fd5b600080fd5b600080fd5b7f4e487b7100000000000000000000000000000000000000000000000000000000600052604160045260246000fd5b61055682610494565b810181811067ffffffffffffffff821117156105755761057461051e565b5b80604052505050565b6000610588610500565b9050610594828261054d565b919050565b600067ffffffffffffffff8211156105b4576105b361051e565b5b6105bd82610494565b9050602081019050919050565b82818337600083830152505050565b60006105ec6105e784610599565b61057e565b90508281526020810184848401111561060857610607610519565b5b6106138482856105ca565b509392505050565b600082601f8301126106305761062f610514565b5b81356106408482602086016105d9565b91505092915050565b600080604083850312156106605761065f61050a565b5b600083013567ffffffffffffffff81111561067e5761067d61050f565b5b61068a8582860161061b565b925050602083013567ffffffffffffffff8111156106ab576106aa61050f565b5b6106b78582860161061b565b9150509250929050565b6000819050919050565b6106d4816106c1565b82525050565b60006020820190506106ef60008301846106cb565b92915050565b7f4e487b7100000000000000000000000000000000000000000000000000000000600052602260045260246000fd5b6000600282049050600182168061073c57607f821691505b60208210810361074f5761074e6106f5565b5b50919050565b60008190508160005260206000209050919050565b60006020601f8301049050919050565b600082821b905092915050565b6000600883026107b77fffffffffffffffffffffffffffffffffffffffffffffffffffffffffffffffff8261077a565b6107c1868361077a565b95508019841693508086168417925050509392505050565b6000819050919050565b60006107fe6107f96107f4846106c1565b6107d9565b6106c1565b9050919050565b6000819050919050565b610818836107e3565b61082c61082482610805565b848454610787565b825550505050565b600090565b610841610834565b61084c81848461080f565b505050565b5b8181101561087057610865600082610839565b600181019050610852565b5050565b601f8211156108b55761088681610755565b61088f8461076a565b8101602085101561089e578190505b6108b26108aa8561076a565b830182610851565b50505b505050565b600082821c905092915050565b60006108d8600019846008026108ba565b1980831691505092915050565b60006108f183836108c7565b9150826002028217905092915050565b61090a8261044e565b67ffffffffffffffff8111156109235761092261051e565b5b61092d8254610724565b610938828285610874565b600060209050601f83116001811461096b5760008415610959578287015190505b61096385826108e5565b8655506109cb565b601f19841661097986610755565b60005b828110156109a15784890151825560018201915060208501945060208101905061097c565b868310156109be57848901516109ba601f8916826108c7565b8355505b6001600288020188555050505b505050505050565b600060408201905081810360008301526109ed81856104a5565b90506109fc60208301846106cb565b939250505056fea2646970667358221220049947e0c62073df72079fae507340f1e21975d0bae682525841c16030b9660f64736f6c634300081c0033",
  "linkReferences": {},
  "deployedLinkReferences": {}
}