{
  "_format": "hh-sol-artifact-1",
  "contractName": "DealToken",
  "sourceName": "contracts/MockToken.sol",
  "abi": [
    {
      "inputs": [],
      "stateMutability": "nonpayable",
      "type": "constructor"
    },
    {
      "inputs": [
        {
          "internalType": "address",
          "name": "spender",
          "type": "address"
        },
        {
          "internalType": "uint256",
          "name": "allowance",
          "type": "uint256"
        },
        {
          "internalType": "uint256",
          "name": "needed",
          "type": "uint256"
        }
      ],
      "name": "ERC20InsufficientAllowance",
      "type": "error"
    },
    {
      "inputs": [
        {
          "internalType": "address",
          "name": "sender",
          "type": "address"
        },
        {
          "internalType": "uint256",
          "name": "balance",
          "type": "uint256"
        },
        {
          "internalType": "uint256",
          "name": "needed",
          "type": "uint256"
        }
      ],
      "name": "ERC20InsufficientBalance",
      "type": "error"
    },
    {
      "inputs": [
        {
          "internalType": "address",
          "name": "approver",
          "type": "address"
        }
      ],
      "name": "ERC20InvalidApprover",
      "type": "error"
    },
    {
      "inputs": [
        {
          "internalType": "address",
          "name": "receiver",
          "type": "address"
        }
      ],
      "name": "ERC20InvalidReceiver",
      "type": "error"
    },
    {
      "inputs": [
        {
          "internalType": "address",
          "name": "sender",
          "type": "address"
        }
      ],
      "name": "ERC20InvalidSender",
      "type": "error"
    },
    {
      "inputs": [
        {
          "internalType": "address",
          "name": "spender",
          "type": "address"
        }
      ],
      "name": "ERC20InvalidSpender",
      "type": "error"
    },
    {
      "inputs": [
        {
          "internalType": "address",
          "name": "owner",
          "type": "address"
        }
      ],
      "name": "OwnableInvalidOwner",
      "type": "error"
    },
    {
      "inputs": [
        {
          "internalType": "address",
          "name": "account",
          "type": "address"
        }
      ],
      "name": "OwnableUnauthorizedAccount",
      "type": "error"
    },
    {
      "anonymous": false,
      "inputs": [
        {
          "indexed": true,
          "internalType": "address",
          "name": "owner",
          "type": "address"
        },
        {
          "indexed": true,
          "internalType": "address",
          "name": "spender",
          "type": "address"
        },
        {
          "indexed": false,
          "internalType": "uint256",
          "name": "value",
          "type": "uint256"
        }
      ],
      "name": "Approval",
      "type": "event"
    },
    {
      "anonymous": false,
      "inputs": [
        {
          "indexed": true,
          "internalType": "address",
          "name": "previousOwner",
          "type": "address"
        },
        {
          "indexed": true,
          "internalType": "address",
          "name": "newOwner",
          "type": "address"
        }
      ],
      "name": "OwnershipTransferred",
      "type": "event"
    },
    {
      "anonymous": false,
      "inputs": [
        {
          "indexed": true,
          "internalType": "address",
          "name": "buyer",
          "type": "address"
        },
        {
          "indexed": false,
          "internalType": "uint256",
          "name": "ethAmount",
          "type": "uint256"
        },
        {
          "indexed": false,
          "internalType": "uint256",
          "name": "tokenAmount",
          "type": "uint256"
        }
      ],
      "name": "TokensPurchased",
      "type": "event"
    },
    {
      "anonymous": false,
      "inputs": [
        {
          "indexed": true,
          "internalType": "address",
          "name": "seller",
          "type": "address"
        },
        {
          "indexed": false,
          "internalType": "uint256",
          "name": "tokenAmount",
          "type": "uint256"
        },
        {
          "indexed": false,
          "internalType": "uint256",
          "name": "ethAmount",
          "type": "uint256"
        }
      ],
      "name": "TokensSold",
      "type": "event"
    },
    {
      "anonymous": false,
      "inputs": [
        {
          "indexed": true,
          "internalType": "address",
          "name": "from",
          "type": "address"
        },
        {
          "indexed": true,
          "internalType": "address",
          "name": "to",
          "type": "address"
        },
        {
          "indexed": false,
          "internalType": "uint256",
          "name": "value",
          "type": "uint256"
        }
      ],
      "name": "Transfer",
      "type": "event"
    },
    {
      "inputs": [
        {
          "internalType": "address",
          "name": "owner",
          "type": "address"
        },
        {
          "internalType": "address",
          "name": "spender",
          "type": "address"
        }
      ],
      "name": "allowance",
      "outputs": [
        {
          "internalType": "uint256",
          "name": "",
          "type": "uint256"
        }
      ],
      "stateMutability": "view",
      "type": "function"
    },
    {
      "inputs": [
        {
          "internalType": "address",
          "name": "spender",
          "type": "address"
        },
        {
          "internalType": "uint256",
          "name": "value",
          "type": "uint256"
        }
      ],
      "name": "approve",
      "outputs": [
        {
          "internalType": "bool",
          "name": "",
          "type": "bool"
        }
      ],
      "stateMutability": "nonpayable",
      "type": "function"
    },
    {
      "inputs": [
        {
          "internalType": "address",
          "name": "account",
          "type": "address"
        }
      ],
      "name": "balanceOf",
      "outputs": [
        {
          "internalType": "uint256",
          "name": "",
          "type": "uint256"
        }
      ],
      "stateMutability": "view",
      "type": "function"
    },
    {
      "inputs": [],
      "name": "basePrice",
      "outputs": [
        {
          "internalType": "uint256",
          "name": "",
          "type": "uint256"
        }
      ],
      "stateMutability": "view",
      "type": "function"
    },
    {
      "inputs": [],
      "name": "buy",
      "outputs": [],
      "stateMutability": "payable",
      "type": "function"
    },
    {
      "inputs": [],
      "name": "decimals",
      "outputs": [
        {
          "internalType": "uint8",
          "name": "",
          "type": "uint8"
        }
      ],
      "stateMutability": "view",
      "type": "function"
    },
    {
      "inputs": [],
      "name": "getCurrentPrice",
      "outputs": [
        {
          "internalType": "uint256",
          "name": "",
          "type": "uint256"
        }
      ],
      "stateMutability": "view",
      "type": "function"
    },
    {
      "inputs": [],
      "name": "name",
      "outputs": [
        {
          "internalType": "string",
          "name": "",
          "type": "string"
        }
      ],
      "stateMutability": "view",
      "type": "function"
    },
    {
      "inputs": [],
      "name": "owner",
      "outputs": [
        {
          "internalType": "address",
          "name": "",
          "type": "address"
        }
      ],
      "stateMutability": "view",
      "type": "function"
    },
    {
      "inputs": [],
      "name": "priceIncreaseFactor",
      "outputs": [
        {
          "internalType": "uint256",
          "name": "",
          "type": "uint256"
        }
      ],
      "stateMutability": "view",
      "type": "function"
    },
    {
      "inputs": [],
      "name": "renounceOwnership",
      "outputs": [],
      "stateMutability": "nonpayable",
      "type": "function"
    },
    {
      "inputs": [
        {
          "internalType": "uint256",
          "name": "tokenAmount",
          "type": "uint256"
        }
      ],
      "name": "sell",
      "outputs": [],
      "stateMutability": "nonpayable",
      "type": "function"
    },
    {
      "inputs": [],
      "name": "symbol",
      "outputs": [
        {
          "internalType": "string",
          "name": "",
          "type": "string"
        }
      ],
      "stateMutability": "view",
      "type": "function"
    },
    {
      "inputs": [],
      "name": "totalEthCollected",
      "outputs": [
        {
          "internalType": "uint256",
          "name": "",
          "type": "uint256"
        }
      ],
      "stateMutability": "view",
      "type": "function"
    },
    {
      "inputs": [],
      "name": "totalSupply",
      "outputs": [
        {
          "internalType": "uint256",
          "name": "",
          "type": "uint256"
        }
      ],
      "stateMutability": "view",
      "type": "function"
    },
    {
      "inputs": [
        {
          "internalType": "address",
          "name": "to",
          "type": "address"
        },
        {
          "internalType": "uint256",
          "name": "value",
          "type": "uint256"
        }
      ],
      "name": "transfer",
      "outputs": [
        {
          "internalType": "bool",
          "name": "",
          "type": "bool"
        }
      ],
      "stateMutability": "nonpayable",
      "type": "function"
    },
    {
      "inputs": [
        {
          "internalType": "address",
          "name": "from",
          "type": "address"
        },
        {
          "internalType": "address",
          "name": "to",
          "type": "address"
        },
        {
          "internalType": "uint256",
          "name": "value",
          "type": "uint256"
        }
      ],
      "name": "transferFrom",
      "outputs": [
        {
          "internalType": "bool",
          "name": "",
          "type": "bool"
        }
      ],
      "stateMutability": "nonpayable",
      "type": "function"
    },
    {
      "inputs": [
        {
          "internalType": "address",
          "name": "newOwner",
          "type": "address"
        }
      ],
      "name": "transferOwnership",
      "outputs": [],
      "stateMutability": "nonpayable",
      "type": "function"
    },
    {
      "inputs": [
        {
          "internalType": "uint256",
          "name": "_newBasePrice",
          "type": "uint256"
        }
      ],
      "name": "updateBasePrice",
      "outputs": [],
      "stateMutability": "nonpayable",
      "type": "function"
    },
    {
      "inputs": [
        {
          "internalType": "uint256",
          "name": "_newFactor",
          "type": "uint256"
        }
      ],
      "name": "updatePriceIncreaseFactor",
      "outputs": [],
      "stateMutability": "nonpayable",
      "type": "function"
    },
    {
      "inputs": [],
      "name": "withdrawETH",
      "outputs": [],
      "stateMutability": "nonpayable",
      "type": "function"
    }
  ],
  "bytecode": "0x608060405266038d7ea4c680006006556710a741a46278000060075534801561002757600080fd5b50336040518060400160405280600a81526020017f4445414c20546f6b656e000000000000000000000000000000000000000000008152506040518060400160405280600481526020017f4445414c0000000000000000000000000000000000000000000000000000000081525081600390816100a4919061071b565b5080600490816100b4919061071b565b505050600073ffffffffffffffffffffffffffffffffffffffff168173ffffffffffffffffffffffffffffffffffffffff16036101295760006040517f1e4fbdf7000000000000000000000000000000000000000000000000000000008152600401610120919061082e565b60405180910390fd5b6101388161015860201b60201c565b506101533369d3c21bcecceda100000061021e60201b60201c565b61090d565b6000600560009054906101000a900473ffffffffffffffffffffffffffffffffffffffff16905081600560006101000a81548173ffffffffffffffffffffffffffffffffffffffff021916908373ffffffffffffffffffffffffffffffffffffffff1602179055508173ffffffffffffffffffffffffffffffffffffffff168173ffffffffffffffffffffffffffffffffffffffff167f8be0079c531659141344cd1fd0a4f28419497f9722a3daafe3b4186f6b6457e060405160405180910390a35050565b600073ffffffffffffffffffffffffffffffffffffffff168273ffffffffffffffffffffffffffffffffffffffff16036102905760006040517fec442f05000000000000000000000000000000000000000000000000000000008152600401610287919061082e565b60405180910390fd5b6102a2600083836102a660201b60201c565b5050565b600073ffffffffffffffffffffffffffffffffffffffff168373ffffffffffffffffffffffffffffffffffffffff16036102f85780600260008282546102ec9190610878565b925050819055506103cb565b60008060008573ffffffffffffffffffffffffffffffffffffffff1673ffffffffffffffffffffffffffffffffffffffff16815260200190815260200160002054905081811015610384578381836040517fe450d38c00000000000000000000000000000000000000000000000000000000815260040161037b939291906108bb565b60405180910390fd5b8181036000808673ffffffffffffffffffffffffffffffffffffffff1673ffffffffffffffffffffffffffffffffffffffff16815260200190815260200160002081905550505b600073ffffffffffffffffffffffffffffffffffffffff168273ffffffffffffffffffffffffffffffffffffffff16036104145780600260008282540392505081905550610461565b806000808473ffffffffffffffffffffffffffffffffffffffff1673ffffffffffffffffffffffffffffffffffffffff168152602001908152602001600020600082825401925050819055505b8173ffffffffffffffffffffffffffffffffffffffff168373ffffffffffffffffffffffffffffffffffffffff167fddf252ad1be2c89b69c2b068fc378daa952ba7f163c4a11628f55a4df523b3ef836040516104be91906108f2565b60405180910390a3505050565b600081519050919050565b7f4e487b7100000000000000000000000000000000000000000000000000000000600052604160045260246000fd5b7f4e487b7100000000000000000000000000000000000000000000000000000000600052602260045260246000fd5b6000600282049050600182168061054c57607f821691505b60208210810361055f5761055e610505565b5b50919050565b60008190508160005260206000209050919050565b60006020601f8301049050919050565b600082821b905092915050565b6000600883026105c77fffffffffffffffffffffffffffffffffffffffffffffffffffffffffffffffff8261058a565b6105d1868361058a565b95508019841693508086168417925050509392505050565b6000819050919050565b6000819050919050565b600061061861061361060e846105e9565b6105f3565b6105e9565b9050919050565b6000819050919050565b610632836105fd565b61064661063e8261061f565b848454610597565b825550505050565b600090565b61065b61064e565b610666818484610629565b505050565b5b8181101561068a5761067f600082610653565b60018101905061066c565b5050565b601f8211156106cf576106a081610565565b6106a98461057a565b810160208510156106b8578190505b6106cc6106c48561057a565b83018261066b565b50505b505050565b600082821c905092915050565b60006106f2600019846008026106d4565b1980831691505092915050565b600061070b83836106e1565b9150826002028217905092915050565b610724826104cb565b67ffffffffffffffff81111561073d5761073c6104d6565b5b6107478254610534565b61075282828561068e565b600060209050601f8311600181146107855760008415610773578287015190505b61077d85826106ff565b8655506107e5565b601f19841661079386610565565b60005b828110156107bb57848901518255600182019150602085019450602081019050610796565b868310156107d857848901516107d4601f8916826106e1565b8355505b6001600288020188555050505b505050505050565b600073ffffffffffffffffffffffffffffffffffffffff82169050919050565b6000610818826107ed565b9050919050565b6108288161080d565b82525050565b6000602082019050610843600083018461081f565b92915050565b7f4e487b7100000000000000000000000000000000000000000000000000000000600052601160045260246000fd5b6000610883826105e9565b915061088e836105e9565b92508282019050808211156108a6576108a5610849565b5b92915050565b6108b5816105e9565b82525050565b60006060820190506108d0600083018661081f565b6108dd60208301856108ac565b6108ea60408301846108ac565b949350505050565b600060208201905061090760008301846108ac565b92915050565b61208b8061091c6000396000f3fe60806040526004361061012a5760003560e01c806395d89b41116100ab578063dd62ed3e1161006f578063dd62ed3e146103c5578063e086e5ec14610402578063e4849b3214610419578063eb91d37e14610442578063f2fde38b1461046d578063fd5baa88146104965761012a565b806395d89b41146102fd578063a6f2ae3a14610328578063a9059cbb14610332578063c7876ea41461036f578063ce2a9f621461039a5761012a565b806334436707116100f2578063344367071461022a5780636e97b47b1461025357806370a082311461027e578063715018a6146102bb5780638da5cb5b146102d25761012a565b806306fdde031461012f578063095ea7b31461015a57806318160ddd1461019757806323b872dd146101c2578063313ce567146101ff575b600080fd5b34801561013b57600080fd5b506101446104bf565b604051610151919061170f565b60405180910390f35b34801561016657600080fd5b50610181600480360381019061017c91906117ca565b610551565b60405161018e9190611825565b60405180910390f35b3480156101a357600080fd5b506101ac610574565b6040516101b9919061184f565b60405180910390f35b3480156101ce57600080fd5b506101e960048036038101906101e4919061186a565b61057e565b6040516101f69190611825565b60405180910390f35b34801561020b57600080fd5b506102146105ad565b60405161022191906118d9565b60405180910390f35b34801561023657600080fd5b50610251600480360381019061024c91906118f4565b6105b6565b005b34801561025f57600080fd5b50610268610613565b604051610275919061184f565b60405180910390f35b34801561028a57600080fd5b506102a560048036038101906102a09190611921565b610619565b6040516102b2919061184f565b60405180910390f35b3480156102c757600080fd5b506102d0610661565b005b3480156102de57600080fd5b506102e7610675565b6040516102f4919061195d565b60405180910390f35b34801561030957600080fd5b5061031261069f565b60405161031f919061170f565b60405180910390f35b610330610731565b005b34801561033e57600080fd5b50610359600480360381019061035491906117ca565b6108e5565b6040516103669190611825565b60405180910390f35b34801561037b57600080fd5b50610384610908565b604051610391919061184f565b60405180910390f35b3480156103a657600080fd5b506103af61090e565b6040516103bc919061184f565b60405180910390f35b3480156103d157600080fd5b506103ec60048036038101906103e79190611978565b610914565b6040516103f9919061184f565b60405180910390f35b34801561040e57600080fd5b5061041761099b565b005b34801561042557600080fd5b50610440600480360381019061043b91906118f4565b610aa2565b005b34801561044e57600080fd5b50610457610d3a565b604051610464919061184f565b60405180910390f35b34801561047957600080fd5b50610494600480360381019061048f9190611921565b610df7565b005b3480156104a257600080fd5b506104bd60048036038101906104b891906118f4565b610e7d565b005b6060600380546104ce906119e7565b80601f01602080910402602001604051908101604052809291908181526020018280546104fa906119e7565b80156105475780601f1061051c57610100808354040283529160200191610547565b820191906000526020600020905b81548152906001019060200180831161052a57829003601f168201915b5050505050905090565b60008061055c610e8f565b9050610569818585610e97565b600191505092915050565b6000600254905090565b600080610589610e8f565b9050610596858285610ea9565b6105a1858585610f3e565b60019150509392505050565b60006012905090565b6105be611032565b670de0b6b3a7640000811015610609576040517f08c379a000000000000000000000000000000000000000000000000000000000815260040161060090611a64565b60405180910390fd5b8060078190555050565b60075481565b60008060008373ffffffffffffffffffffffffffffffffffffffff1673ffffffffffffffffffffffffffffffffffffffff168152602001908152602001600020549050919050565b610669611032565b61067360006110b9565b565b6000600560009054906101000a900473ffffffffffffffffffffffffffffffffffffffff16905090565b6060600480546106ae906119e7565b80601f01602080910402602001604051908101604052809291908181526020018280546106da906119e7565b80156107275780601f106106fc57610100808354040283529160200191610727565b820191906000526020600020905b81548152906001019060200180831161070a57829003601f168201915b5050505050905090565b60003411610774576040517f08c379a000000000000000000000000000000000000000000000000000000000815260040161076b90611ad0565b60405180910390fd5b600061077e610d3a565b9050600081116107c3576040517f08c379a00000000000000000000000000000000000000000000000000000000081526004016107ba90611b3c565b60405180910390fd5b600081670de0b6b3a7640000346107da9190611b8b565b6107e49190611bfc565b905060006107f0610574565b90506a084595161401484a000000828261080a9190611c2d565b111561082a57806a084595161401484a0000006108279190611c61565b91505b6000821161086d576040517f08c379a000000000000000000000000000000000000000000000000000000000815260040161086490611d07565b60405180910390fd5b346008600082825461087f9190611c2d565b92505081905550610890338361117f565b3373ffffffffffffffffffffffffffffffffffffffff167f8fafebcaf9d154343dad25669bfa277f4fbacd7ac6b0c4fed522580e040a0f3334846040516108d8929190611d27565b60405180910390a2505050565b6000806108f0610e8f565b90506108fd818585610f3e565b600191505092915050565b60065481565b60085481565b6000600160008473ffffffffffffffffffffffffffffffffffffffff1673ffffffffffffffffffffffffffffffffffffffff16815260200190815260200160002060008373ffffffffffffffffffffffffffffffffffffffff1673ffffffffffffffffffffffffffffffffffffffff16815260200190815260200160002054905092915050565b6109a3611032565b6000479050600081116109eb576040517f08c379a00000000000000000000000000000000000000000000000000000000081526004016109e290611d9c565b60405180910390fd5b60006109f5610675565b73ffffffffffffffffffffffffffffffffffffffff1682604051610a1890611ded565b60006040518083038185875af1925050503d8060008114610a55576040519150601f19603f3d011682016040523d82523d6000602084013e610a5a565b606091505b5050905080610a9e576040517f08c379a0000000000000000000000000000000000000000000000000000000008152600401610a9590611e4e565b60405180910390fd5b5050565b60008111610ae5576040517f08c379a0000000000000000000000000000000000000000000000000000000008152600401610adc90611eba565b60405180910390fd5b80610aef33610619565b1015610b30576040517f08c379a0000000000000000000000000000000000000000000000000000000008152600401610b2790611f26565b60405180910390fd5b600047905060008111610b78576040517f08c379a0000000000000000000000000000000000000000000000000000000008152600401610b6f90611f92565b60405180910390fd5b6000610b82610d3a565b905060006064605a83610b959190611b8b565b610b9f9190611bfc565b90506000670de0b6b3a76400008286610bb89190611b8b565b610bc29190611bfc565b905083811115610bd0578390505b60008111610c13576040517f08c379a0000000000000000000000000000000000000000000000000000000008152600401610c0a90611ffe565b60405180910390fd5b610c1d3386611201565b8060086000828254610c2f9190611c61565b9250508190555060003373ffffffffffffffffffffffffffffffffffffffff1682604051610c5c90611ded565b60006040518083038185875af1925050503d8060008114610c99576040519150601f19603f3d011682016040523d82523d6000602084013e610c9e565b606091505b5050905080610ce2576040517f08c379a0000000000000000000000000000000000000000000000000000000008152600401610cd990611e4e565b60405180910390fd5b3373ffffffffffffffffffffffffffffffffffffffff167f2dcf9433d75db0d8b1c172641f85e319ffe4ad22e108a95d1847ceb906e5195d8784604051610d2a929190611d27565b60405180910390a2505050505050565b600080610d45610574565b90506a084595161401484a0000008110610d82577fffffffffffffffffffffffffffffffffffffffffffffffffffffffffffffffff915050610df4565b60006a084595161401484a000000670de0b6b3a764000083610da49190611b8b565b610dae9190611bfc565b90506000670de0b6b3a764000080600754610dc99190611c61565b83610dd49190611b8b565b610dde9190611bfc565b600654610deb9190611c2d565b90508093505050505b90565b610dff611032565b600073ffffffffffffffffffffffffffffffffffffffff168173ffffffffffffffffffffffffffffffffffffffff1603610e715760006040517f1e4fbdf7000000000000000000000000000000000000000000000000000000008152600401610e68919061195d565b60405180910390fd5b610e7a816110b9565b50565b610e85611032565b8060068190555050565b600033905090565b610ea48383836001611283565b505050565b6000610eb58484610914565b90507fffffffffffffffffffffffffffffffffffffffffffffffffffffffffffffffff811015610f385781811015610f28578281836040517ffb8f41b2000000000000000000000000000000000000000000000000000000008152600401610f1f9392919061201e565b60405180910390fd5b610f3784848484036000611283565b5b50505050565b600073ffffffffffffffffffffffffffffffffffffffff168373ffffffffffffffffffffffffffffffffffffffff1603610fb05760006040517f96c6fd1e000000000000000000000000000000000000000000000000000000008152600401610fa7919061195d565b60405180910390fd5b600073ffffffffffffffffffffffffffffffffffffffff168273ffffffffffffffffffffffffffffffffffffffff16036110225760006040517fec442f05000000000000000000000000000000000000000000000000000000008152600401611019919061195d565b60405180910390fd5b61102d83838361145a565b505050565b61103a610e8f565b73ffffffffffffffffffffffffffffffffffffffff16611058610675565b73ffffffffffffffffffffffffffffffffffffffff16146110b75761107b610e8f565b6040517f118cdaa70000000000000000000000000000000000000000000000000000000081526004016110ae919061195d565b60405180910390fd5b565b6000600560009054906101000a900473ffffffffffffffffffffffffffffffffffffffff16905081600560006101000a81548173ffffffffffffffffffffffffffffffffffffffff021916908373ffffffffffffffffffffffffffffffffffffffff1602179055508173ffffffffffffffffffffffffffffffffffffffff168173ffffffffffffffffffffffffffffffffffffffff167f8be0079c531659141344cd1fd0a4f28419497f9722a3daafe3b4186f6b6457e060405160405180910390a35050565b600073ffffffffffffffffffffffffffffffffffffffff168273ffffffffffffffffffffffffffffffffffffffff16036111f15760006040517fec442f050000000000000000000000000000000000000000000000000000000081526004016111e8919061195d565b60405180910390fd5b6111fd6000838361145a565b5050565b600073ffffffffffffffffffffffffffffffffffffffff168273ffffffffffffffffffffffffffffffffffffffff16036112735760006040517f96c6fd1e00000000000000000000000000000000000000000000000000000000815260040161126a919061195d565b60405180910390fd5b61127f8260008361145a565b5050565b600073ffffffffffffffffffffffffffffffffffffffff168473ffffffffffffffffffffffffffffffffffffffff16036112f55760006040517fe602df050000000000000000000000000000000000000000000000000000000081526004016112ec919061195d565b60405180910390fd5b600073ffffffffffffffffffffffffffffffffffffffff168373ffffffffffffffffffffffffffffffffffffffff16036113675760006040517f94280d6200000000000000000000000000000000000000000000000000000000815260040161135e919061195d565b60405180910390fd5b81600160008673ffffffffffffffffffffffffffffffffffffffff1673ffffffffffffffffffffffffffffffffffffffff16815260200190815260200160002060008573ffffffffffffffffffffffffffffffffffffffff1673ffffffffffffffffffffffffffffffffffffffff168152602001908152602001600020819055508015611454578273ffffffffffffffffffffffffffffffffffffffff168473ffffffffffffffffffffffffffffffffffffffff167f8c5be1e5ebec7d5bd14f71427d1e84f3dd0314c0f7b2291e5b200ac8c7c3b9258460405161144b919061184f565b60405180910390a35b50505050565b600073ffffffffffffffffffffffffffffffffffffffff168373ffffffffffffffffffffffffffffffffffffffff16036114ac5780600260008282546114a09190611c2d565b9250508190555061157f565b60008060008573ffffffffffffffffffffffffffffffffffffffff1673ffffffffffffffffffffffffffffffffffffffff16815260200190815260200160002054905081811015611538578381836040517fe450d38c00000000000000000000000000000000000000000000000000000000815260040161152f9392919061201e565b60405180910390fd5b8181036000808673ffffffffffffffffffffffffffffffffffffffff1673ffffffffffffffffffffffffffffffffffffffff16815260200190815260200160002081905550505b600073ffffffffffffffffffffffffffffffffffffffff168273ffffffffffffffffffffffffffffffffffffffff16036115c85780600260008282540392505081905550611615565b806000808473ffffffffffffffffffffffffffffffffffffffff1673ffffffffffffffffffffffffffffffffffffffff168152602001908152602001600020600082825401925050819055505b8173ffffffffffffffffffffffffffffffffffffffff168373ffffffffffffffffffffffffffffffffffffffff167fddf252ad1be2c89b69c2b068fc378daa952ba7f163c4a11628f55a4df523b3ef83604051611672919061184f565b60405180910390a3505050565b600081519050919050565b600082825260208201905092915050565b60005b838110156116b957808201518184015260208101905061169e565b60008484015250505050565b6000601f19601f8301169050919050565b60006116e18261167f565b6116eb818561168a565b93506116fb81856020860161169b565b611704816116c5565b840191505092915050565b6000602082019050818103600083015261172981846116d6565b905092915050565b600080fd5b600073ffffffffffffffffffffffffffffffffffffffff82169050919050565b600061176182611736565b9050919050565b61177181611756565b811461177c57600080fd5b50565b60008135905061178e81611768565b92915050565b6000819050919050565b6117a781611794565b81146117b257600080fd5b50565b6000813590506117c48161179e565b92915050565b600080604083850312156117e1576117e0611731565b5b60006117ef8582860161177f565b9250506020611800858286016117b5565b9150509250929050565b60008115159050919050565b61181f8161180a565b82525050565b600060208201905061183a6000830184611816565b92915050565b61184981611794565b82525050565b60006020820190506118646000830184611840565b92915050565b60008060006060848603121561188357611882611731565b5b60006118918682870161177f565b93505060206118a28682870161177f565b92505060406118b3868287016117b5565b9150509250925092565b600060ff82169050919050565b6118d3816118bd565b82525050565b60006020820190506118ee60008301846118ca565b92915050565b60006020828403121561190a57611909611731565b5b6000611918848285016117b5565b91505092915050565b60006020828403121561193757611936611731565b5b60006119458482850161177f565b91505092915050565b61195781611756565b82525050565b6000602082019050611972600083018461194e565b92915050565b6000806040838503121561198f5761198e611731565b5b600061199d8582860161177f565b92505060206119ae8582860161177f565b9150509250929050565b7f4e487b7100000000000000000000000000000000000000000000000000000000600052602260045260246000fd5b600060028204905060018216806119ff57607f821691505b602082108103611a1257611a116119b8565b5b50919050565b7f466163746f72206d757374206265206174206c6561737420312e300000000000600082015250565b6000611a4e601b8361168a565b9150611a5982611a18565b602082019050919050565b60006020820190508181036000830152611a7d81611a41565b9050919050565b7f4d7573742073656e642045544820746f2062757920746f6b656e730000000000600082015250565b6000611aba601b8361168a565b9150611ac582611a84565b602082019050919050565b60006020820190508181036000830152611ae981611aad565b9050919050565b7f50726963652063616c63756c6174696f6e206572726f72000000000000000000600082015250565b6000611b2660178361168a565b9150611b3182611af0565b602082019050919050565b60006020820190508181036000830152611b5581611b19565b9050919050565b7f4e487b7100000000000000000000000000000000000000000000000000000000600052601160045260246000fd5b6000611b9682611794565b9150611ba183611794565b9250828202611baf81611794565b91508282048414831517611bc657611bc5611b5c565b5b5092915050565b7f4e487b7100000000000000000000000000000000000000000000000000000000600052601260045260246000fd5b6000611c0782611794565b9150611c1283611794565b925082611c2257611c21611bcd565b5b828204905092915050565b6000611c3882611794565b9150611c4383611794565b9250828201905080821115611c5b57611c5a611b5c565b5b92915050565b6000611c6c82611794565b9150611c7783611794565b9250828203905081811115611c8f57611c8e611b5c565b5b92915050565b7f4e6f7420656e6f756768204554482073656e7420746f2062757920616e79207460008201527f6f6b656e73000000000000000000000000000000000000000000000000000000602082015250565b6000611cf160258361168a565b9150611cfc82611c95565b604082019050919050565b60006020820190508181036000830152611d2081611ce4565b9050919050565b6000604082019050611d3c6000830185611840565b611d496020830184611840565b9392505050565b7f4e6f2045544820746f2077697468647261770000000000000000000000000000600082015250565b6000611d8660128361168a565b9150611d9182611d50565b602082019050919050565b60006020820190508181036000830152611db581611d79565b9050919050565b600081905092915050565b50565b6000611dd7600083611dbc565b9150611de282611dc7565b600082019050919050565b6000611df882611dca565b9150819050919050565b7f455448207472616e73666572206661696c656400000000000000000000000000600082015250565b6000611e3860138361168a565b9150611e4382611e02565b602082019050919050565b60006020820190508181036000830152611e6781611e2b565b9050919050565b7f4d7573742073656c6c206120706f73697469766520616d6f756e740000000000600082015250565b6000611ea4601b8361168a565b9150611eaf82611e6e565b602082019050919050565b60006020820190508181036000830152611ed381611e97565b9050919050565b7f496e73756666696369656e7420746f6b656e2062616c616e6365000000000000600082015250565b6000611f10601a8361168a565b9150611f1b82611eda565b602082019050919050565b60006020820190508181036000830152611f3f81611f03565b9050919050565b7f436f6e747261637420686173206e6f2045544820746f20706179000000000000600082015250565b6000611f7c601a8361168a565b9150611f8782611f46565b602082019050919050565b60006020820190508181036000830152611fab81611f6f565b9050919050565b7f4e6f7420656e6f7567682045544820746f2072657475726e0000000000000000600082015250565b6000611fe860188361168a565b9150611ff382611fb2565b602082019050919050565b6000602082019050818103600083015261201781611fdb565b9050919050565b6000606082019050612033600083018661194e565b6120406020830185611840565b61204d6040830184611840565b94935050505056fea2646970667358221220acd38c478ddaaa7f5d45acbedfc47c85a1132d7685d6a88a96a2800cba3d737564736f6c634300081c0033",
  "linkReferences": {},
  "deployedLinkReferences": {}
}