{
  "_format": "hh-sol-artifact-1",
  "contractName": "ALTToken",
  "sourceName": "contracts/MockToken2.sol",
  "abi": [
    {
      "inputs": [],
      "stateMutability": "nonpayable",
      "type": "constructor"
    },
    {
      "inputs": [
        {
          "internalType": "address",
          "name": "spender",
          "type": "address"
        },
        {
          "internalType": "uint256",
          "name": "allowance",
          "type": "uint256"
        },
        {
          "internalType": "uint256",
          "name": "needed",
          "type": "uint256"
        }
      ],
      "name": "ERC20InsufficientAllowance",
      "type": "error"
    },
    {
      "inputs": [
        {
          "internalType": "address",
          "name": "sender",
          "type": "address"
        },
        {
          "internalType": "uint256",
          "name": "balance",
          "type": "uint256"
        },
        {
          "internalType": "uint256",
          "name": "needed",
          "type": "uint256"
        }
      ],
      "name": "ERC20InsufficientBalance",
      "type": "error"
    },
    {
      "inputs": [
        {
          "internalType": "address",
          "name": "approver",
          "type": "address"
        }
      ],
      "name": "ERC20InvalidApprover",
      "type": "error"
    },
    {
      "inputs": [
        {
          "internalType": "address",
          "name": "receiver",
          "type": "address"
        }
      ],
      "name": "ERC20InvalidReceiver",
      "type": "error"
    },
    {
      "inputs": [
        {
          "internalType": "address",
          "name": "sender",
          "type": "address"
        }
      ],
      "name": "ERC20InvalidSender",
      "type": "error"
    },
    {
      "inputs": [
        {
          "internalType": "address",
          "name": "spender",
          "type": "address"
        }
      ],
      "name": "ERC20InvalidSpender",
      "type": "error"
    },
    {
      "inputs": [
        {
          "internalType": "address",
          "name": "owner",
          "type": "address"
        }
      ],
      "name": "OwnableInvalidOwner",
      "type": "error"
    },
    {
      "inputs": [
        {
          "internalType": "address",
          "name": "account",
          "type": "address"
        }
      ],
      "name": "OwnableUnauthorizedAccount",
      "type": "error"
    },
    {
      "anonymous": false,
      "inputs": [
        {
          "indexed": true,
          "internalType": "address",
          "name": "owner",
          "type": "address"
        },
        {
          "indexed": true,
          "internalType": "address",
          "name": "spender",
          "type": "address"
        },
        {
          "indexed": false,
          "internalType": "uint256",
          "name": "value",
          "type": "uint256"
        }
      ],
      "name": "Approval",
      "type": "event"
    },
    {
      "anonymous": false,
      "inputs": [
        {
          "indexed": true,
          "internalType": "address",
          "name": "previousOwner",
          "type": "address"
        },
        {
          "indexed": true,
          "internalType": "address",
          "name": "newOwner",
          "type": "address"
        }
      ],
      "name": "OwnershipTransferred",
      "type": "event"
    },
    {
      "anonymous": false,
      "inputs": [
        {
          "indexed": true,
          "internalType": "address",
          "name": "buyer",
          "type": "address"
        },
        {
          "indexed": false,
          "internalType": "uint256",
          "name": "ethAmount",
          "type": "uint256"
        },
        {
          "indexed": false,
          "internalType": "uint256",
          "name": "tokenAmount",
          "type": "uint256"
        }
      ],
      "name": "TokensPurchased",
      "type": "event"
    },
    {
      "anonymous": false,
      "inputs": [
        {
          "indexed": true,
          "internalType": "address",
          "name": "seller",
          "type": "address"
        },
        {
          "indexed": false,
          "internalType": "uint256",
          "name": "tokenAmount",
          "type": "uint256"
        },
        {
          "indexed": false,
          "internalType": "uint256",
          "name": "ethAmount",
          "type": "uint256"
        }
      ],
      "name": "TokensSold",
      "type": "event"
    },
    {
      "anonymous": false,
      "inputs": [
        {
          "indexed": true,
          "internalType": "address",
          "name": "from",
          "type": "address"
        },
        {
          "indexed": true,
          "internalType": "address",
          "name": "to",
          "type": "address"
        },
        {
          "indexed": false,
          "internalType": "uint256",
          "name": "value",
          "type": "uint256"
        }
      ],
      "name": "Transfer",
      "type": "event"
    },
    {
      "inputs": [
        {
          "internalType": "address",
          "name": "owner",
          "type": "address"
        },
        {
          "internalType": "address",
          "name": "spender",
          "type": "address"
        }
      ],
      "name": "allowance",
      "outputs": [
        {
          "internalType": "uint256",
          "name": "",
          "type": "uint256"
        }
      ],
      "stateMutability": "view",
      "type": "function"
    },
    {
      "inputs": [
        {
          "internalType": "address",
          "name": "spender",
          "type": "address"
        },
        {
          "internalType": "uint256",
          "name": "value",
          "type": "uint256"
        }
      ],
      "name": "approve",
      "outputs": [
        {
          "internalType": "bool",
          "name": "",
          "type": "bool"
        }
      ],
      "stateMutability": "nonpayable",
      "type": "function"
    },
    {
      "inputs": [
        {
          "internalType": "address",
          "name": "account",
          "type": "address"
        }
      ],
      "name": "balanceOf",
      "outputs": [
        {
          "internalType": "uint256",
          "name": "",
          "type": "uint256"
        }
      ],
      "stateMutability": "view",
      "type": "function"
    },
    {
      "inputs": [],
      "name": "basePrice",
      "outputs": [
        {
          "internalType": "uint256",
          "name": "",
          "type": "uint256"
        }
      ],
      "stateMutability": "view",
      "type": "function"
    },
    {
      "inputs": [],
      "name": "buy",
      "outputs": [],
      "stateMutability": "payable",
      "type": "function"
    },
    {
      "inputs": [],
      "name": "decimals",
      "outputs": [
        {
          "internalType": "uint8",
          "name": "",
          "type": "uint8"
        }
      ],
      "stateMutability": "view",
      "type": "function"
    },
    {
      "inputs": [],
      "name": "getCurrentPrice",
      "outputs": [
        {
          "internalType": "uint256",
          "name": "",
          "type": "uint256"
        }
      ],
      "stateMutability": "view",
      "type": "function"
    },
    {
      "inputs": [],
      "name": "name",
      "outputs": [
        {
          "internalType": "string",
          "name": "",
          "type": "string"
        }
      ],
      "stateMutability": "view",
      "type": "function"
    },
    {
      "inputs": [],
      "name": "owner",
      "outputs": [
        {
          "internalType": "address",
          "name": "",
          "type": "address"
        }
      ],
      "stateMutability": "view",
      "type": "function"
    },
    {
      "inputs": [],
      "name": "priceIncreaseFactor",
      "outputs": [
        {
          "internalType": "uint256",
          "name": "",
          "type": "uint256"
        }
      ],
      "stateMutability": "view",
      "type": "function"
    },
    {
      "inputs": [],
      "name": "renounceOwnership",
      "outputs": [],
      "stateMutability": "nonpayable",
      "type": "function"
    },
    {
      "inputs": [
        {
          "internalType": "uint256",
          "name": "tokenAmount",
          "type": "uint256"
        }
      ],
      "name": "sell",
      "outputs": [],
      "stateMutability": "nonpayable",
      "type": "function"
    },
    {
      "inputs": [],
      "name": "symbol",
      "outputs": [
        {
          "internalType": "string",
          "name": "",
          "type": "string"
        }
      ],
      "stateMutability": "view",
      "type": "function"
    },
    {
      "inputs": [],
      "name": "totalEthCollected",
      "outputs": [
        {
          "internalType": "uint256",
          "name": "",
          "type": "uint256"
        }
      ],
      "stateMutability": "view",
      "type": "function"
    },
    {
      "inputs": [],
      "name": "totalSupply",
      "outputs": [
        {
          "internalType": "uint256",
          "name": "",
          "type": "uint256"
        }
      ],
      "stateMutability": "view",
      "type": "function"
    },
    {
      "inputs": [
        {
          "internalType": "address",
          "name": "to",
          "type": "address"
        },
        {
          "internalType": "uint256",
          "name": "value",
          "type": "uint256"
        }
      ],
      "name": "transfer",
      "outputs": [
        {
          "internalType": "bool",
          "name": "",
          "type": "bool"
        }
      ],
      "stateMutability": "nonpayable",
      "type": "function"
    },
    {
      "inputs": [
        {
          "internalType": "address",
          "name": "from",
          "type": "address"
        },
        {
          "internalType": "address",
          "name": "to",
          "type": "address"
        },
        {
          "internalType": "uint256",
          "name": "value",
          "type": "uint256"
        }
      ],
      "name": "transferFrom",
      "outputs": [
        {
          "internalType": "bool",
          "name": "",
          "type": "bool"
        }
      ],
      "stateMutability": "nonpayable",
      "type": "function"
    },
    {
      "inputs": [
        {
          "internalType": "address",
          "name": "newOwner",
          "type": "address"
        }
      ],
      "name": "transferOwnership",
      "outputs": [],
      "stateMutability": "nonpayable",
      "type": "function"
    },
    {
      "inputs": [
        {
          "internalType": "uint256",
          "name": "_newBasePrice",
          "type": "uint256"
        }
      ],
      "name": "updateBasePrice",
      "outputs": [],
      "stateMutability": "nonpayable",
      "type": "function"
    },
    {
      "inputs": [
        {
          "internalType": "uint256",
          "name": "_newFactor",
          "type": "uint256"
        }
      ],
      "name": "updatePriceIncreaseFactor",
      "outputs": [],
      "stateMutability": "nonpayable",
      "type": "function"
    }
  ],
  "bytecode": "0x608060405266038d7ea4c680006006556710a741a46278000060075534801561002757600080fd5b50336040518060400160405280600381526020017f414c5400000000000000000000000000000000000000000000000000000000008152506040518060400160405280600881526020017f414c54546f6b656e00000000000000000000000000000000000000000000000081525081600390816100a4919061071b565b5080600490816100b4919061071b565b505050600073ffffffffffffffffffffffffffffffffffffffff168173ffffffffffffffffffffffffffffffffffffffff16036101295760006040517f1e4fbdf7000000000000000000000000000000000000000000000000000000008152600401610120919061082e565b60405180910390fd5b6101388161015860201b60201c565b506101533369d3c21bcecceda100000061021e60201b60201c565b61090d565b6000600560009054906101000a900473ffffffffffffffffffffffffffffffffffffffff16905081600560006101000a81548173ffffffffffffffffffffffffffffffffffffffff021916908373ffffffffffffffffffffffffffffffffffffffff1602179055508173ffffffffffffffffffffffffffffffffffffffff168173ffffffffffffffffffffffffffffffffffffffff167f8be0079c531659141344cd1fd0a4f28419497f9722a3daafe3b4186f6b6457e060405160405180910390a35050565b600073ffffffffffffffffffffffffffffffffffffffff168273ffffffffffffffffffffffffffffffffffffffff16036102905760006040517fec442f05000000000000000000000000000000000000000000000000000000008152600401610287919061082e565b60405180910390fd5b6102a2600083836102a660201b60201c565b5050565b600073ffffffffffffffffffffffffffffffffffffffff168373ffffffffffffffffffffffffffffffffffffffff16036102f85780600260008282546102ec9190610878565b925050819055506103cb565b60008060008573ffffffffffffffffffffffffffffffffffffffff1673ffffffffffffffffffffffffffffffffffffffff16815260200190815260200160002054905081811015610384578381836040517fe450d38c00000000000000000000000000000000000000000000000000000000815260040161037b939291906108bb565b60405180910390fd5b8181036000808673ffffffffffffffffffffffffffffffffffffffff1673ffffffffffffffffffffffffffffffffffffffff16815260200190815260200160002081905550505b600073ffffffffffffffffffffffffffffffffffffffff168273ffffffffffffffffffffffffffffffffffffffff16036104145780600260008282540392505081905550610461565b806000808473ffffffffffffffffffffffffffffffffffffffff1673ffffffffffffffffffffffffffffffffffffffff168152602001908152602001600020600082825401925050819055505b8173ffffffffffffffffffffffffffffffffffffffff168373ffffffffffffffffffffffffffffffffffffffff167fddf252ad1be2c89b69c2b068fc378daa952ba7f163c4a11628f55a4df523b3ef836040516104be91906108f2565b60405180910390a3505050565b600081519050919050565b7f4e487b7100000000000000000000000000000000000000000000000000000000600052604160045260246000fd5b7f4e487b7100000000000000000000000000000000000000000000000000000000600052602260045260246000fd5b6000600282049050600182168061054c57607f821691505b60208210810361055f5761055e610505565b5b50919050565b60008190508160005260206000209050919050565b60006020601f8301049050919050565b600082821b905092915050565b6000600883026105c77fffffffffffffffffffffffffffffffffffffffffffffffffffffffffffffffff8261058a565b6105d1868361058a565b95508019841693508086168417925050509392505050565b6000819050919050565b6000819050919050565b600061061861061361060e846105e9565b6105f3565b6105e9565b9050919050565b6000819050919050565b610632836105fd565b61064661063e8261061f565b848454610597565b825550505050565b600090565b61065b61064e565b610666818484610629565b505050565b5b8181101561068a5761067f600082610653565b60018101905061066c565b5050565b601f8211156106cf576106a081610565565b6106a98461057a565b810160208510156106b8578190505b6106cc6106c48561057a565b83018261066b565b50505b505050565b600082821c905092915050565b60006106f2600019846008026106d4565b1980831691505092915050565b600061070b83836106e1565b9150826002028217905092915050565b610724826104cb565b67ffffffffffffffff81111561073d5761073c6104d6565b5b6107478254610534565b61075282828561068e565b600060209050601f8311600181146107855760008415610773578287015190505b61077d85826106ff565b8655506107e5565b601f19841661079386610565565b60005b828110156107bb57848901518255600182019150602085019450602081019050610796565b868310156107d857848901516107d4601f8916826106e1565b8355505b6001600288020188555050505b505050505050565b600073ffffffffffffffffffffffffffffffffffffffff82169050919050565b6000610818826107ed565b9050919050565b6108288161080d565b82525050565b6000602082019050610843600083018461081f565b92915050565b7f4e487b7100000000000000000000000000000000000000000000000000000000600052601160045260246000fd5b6000610883826105e9565b915061088e836105e9565b92508282019050808211156108a6576108a5610849565b5b92915050565b6108b5816105e9565b82525050565b60006060820190506108d0600083018661081f565b6108dd60208301856108ac565b6108ea60408301846108ac565b949350505050565b600060208201905061090760008301846108ac565b92915050565b611ef68061091c6000396000f3fe60806040526004361061011f5760003560e01c806395d89b41116100a0578063dd62ed3e11610064578063dd62ed3e146103ba578063e4849b32146103f7578063eb91d37e14610420578063f2fde38b1461044b578063fd5baa88146104745761011f565b806395d89b41146102f2578063a6f2ae3a1461031d578063a9059cbb14610327578063c7876ea414610364578063ce2a9f621461038f5761011f565b806334436707116100e7578063344367071461021f5780636e97b47b1461024857806370a0823114610273578063715018a6146102b05780638da5cb5b146102c75761011f565b806306fdde0314610124578063095ea7b31461014f57806318160ddd1461018c57806323b872dd146101b7578063313ce567146101f4575b600080fd5b34801561013057600080fd5b5061013961049d565b60405161014691906115e6565b60405180910390f35b34801561015b57600080fd5b50610176600480360381019061017191906116a1565b61052f565b60405161018391906116fc565b60405180910390f35b34801561019857600080fd5b506101a1610552565b6040516101ae9190611726565b60405180910390f35b3480156101c357600080fd5b506101de60048036038101906101d99190611741565b61055c565b6040516101eb91906116fc565b60405180910390f35b34801561020057600080fd5b5061020961058b565b60405161021691906117b0565b60405180910390f35b34801561022b57600080fd5b50610246600480360381019061024191906117cb565b610594565b005b34801561025457600080fd5b5061025d6105f1565b60405161026a9190611726565b60405180910390f35b34801561027f57600080fd5b5061029a600480360381019061029591906117f8565b6105f7565b6040516102a79190611726565b60405180910390f35b3480156102bc57600080fd5b506102c561063f565b005b3480156102d357600080fd5b506102dc610653565b6040516102e99190611834565b60405180910390f35b3480156102fe57600080fd5b5061030761067d565b60405161031491906115e6565b60405180910390f35b61032561070f565b005b34801561033357600080fd5b5061034e600480360381019061034991906116a1565b6108c3565b60405161035b91906116fc565b60405180910390f35b34801561037057600080fd5b506103796108e6565b6040516103869190611726565b60405180910390f35b34801561039b57600080fd5b506103a46108ec565b6040516103b19190611726565b60405180910390f35b3480156103c657600080fd5b506103e160048036038101906103dc919061184f565b6108f2565b6040516103ee9190611726565b60405180910390f35b34801561040357600080fd5b5061041e600480360381019061041991906117cb565b610979565b005b34801561042c57600080fd5b50610435610c11565b6040516104429190611726565b60405180910390f35b34801561045757600080fd5b50610472600480360381019061046d91906117f8565b610cce565b005b34801561048057600080fd5b5061049b600480360381019061049691906117cb565b610d54565b005b6060600380546104ac906118be565b80601f01602080910402602001604051908101604052809291908181526020018280546104d8906118be565b80156105255780601f106104fa57610100808354040283529160200191610525565b820191906000526020600020905b81548152906001019060200180831161050857829003601f168201915b5050505050905090565b60008061053a610d66565b9050610547818585610d6e565b600191505092915050565b6000600254905090565b600080610567610d66565b9050610574858285610d80565b61057f858585610e15565b60019150509392505050565b60006012905090565b61059c610f09565b670de0b6b3a76400008110156105e7576040517f08c379a00000000000000000000000000000000000000000000000000000000081526004016105de9061193b565b60405180910390fd5b8060078190555050565b60075481565b60008060008373ffffffffffffffffffffffffffffffffffffffff1673ffffffffffffffffffffffffffffffffffffffff168152602001908152602001600020549050919050565b610647610f09565b6106516000610f90565b565b6000600560009054906101000a900473ffffffffffffffffffffffffffffffffffffffff16905090565b60606004805461068c906118be565b80601f01602080910402602001604051908101604052809291908181526020018280546106b8906118be565b80156107055780601f106106da57610100808354040283529160200191610705565b820191906000526020600020905b8154815290600101906020018083116106e857829003601f168201915b5050505050905090565b60003411610752576040517f08c379a0000000000000000000000000000000000000000000000000000000008152600401610749906119a7565b60405180910390fd5b600061075c610c11565b9050600081116107a1576040517f08c379a000000000000000000000000000000000000000000000000000000000815260040161079890611a13565b60405180910390fd5b600081670de0b6b3a7640000346107b89190611a62565b6107c29190611ad3565b905060006107ce610552565b90506a084595161401484a00000082826107e89190611b04565b111561080857806a084595161401484a0000006108059190611b38565b91505b6000821161084b576040517f08c379a000000000000000000000000000000000000000000000000000000000815260040161084290611bde565b60405180910390fd5b346008600082825461085d9190611b04565b9250508190555061086e3383611056565b3373ffffffffffffffffffffffffffffffffffffffff167f8fafebcaf9d154343dad25669bfa277f4fbacd7ac6b0c4fed522580e040a0f3334846040516108b6929190611bfe565b60405180910390a2505050565b6000806108ce610d66565b90506108db818585610e15565b600191505092915050565b60065481565b60085481565b6000600160008473ffffffffffffffffffffffffffffffffffffffff1673ffffffffffffffffffffffffffffffffffffffff16815260200190815260200160002060008373ffffffffffffffffffffffffffffffffffffffff1673ffffffffffffffffffffffffffffffffffffffff16815260200190815260200160002054905092915050565b600081116109bc576040517f08c379a00000000000000000000000000000000000000000000000000000000081526004016109b390611c73565b60405180910390fd5b806109c6336105f7565b1015610a07576040517f08c379a00000000000000000000000000000000000000000000000000000000081526004016109fe90611cdf565b60405180910390fd5b600047905060008111610a4f576040517f08c379a0000000000000000000000000000000000000000000000000000000008152600401610a4690611d4b565b60405180910390fd5b6000610a59610c11565b905060006064605a83610a6c9190611a62565b610a769190611ad3565b90506000670de0b6b3a76400008286610a8f9190611a62565b610a999190611ad3565b905083811115610aa7578390505b60008111610aea576040517f08c379a0000000000000000000000000000000000000000000000000000000008152600401610ae190611db7565b60405180910390fd5b610af433866110d8565b8060086000828254610b069190611b38565b9250508190555060003373ffffffffffffffffffffffffffffffffffffffff1682604051610b3390611e08565b60006040518083038185875af1925050503d8060008114610b70576040519150601f19603f3d011682016040523d82523d6000602084013e610b75565b606091505b5050905080610bb9576040517f08c379a0000000000000000000000000000000000000000000000000000000008152600401610bb090611e69565b60405180910390fd5b3373ffffffffffffffffffffffffffffffffffffffff167f2dcf9433d75db0d8b1c172641f85e319ffe4ad22e108a95d1847ceb906e5195d8784604051610c01929190611bfe565b60405180910390a2505050505050565b600080610c1c610552565b90506a084595161401484a0000008110610c59577fffffffffffffffffffffffffffffffffffffffffffffffffffffffffffffffff915050610ccb565b60006a084595161401484a000000670de0b6b3a764000083610c7b9190611a62565b610c859190611ad3565b90506000670de0b6b3a764000080600754610ca09190611b38565b83610cab9190611a62565b610cb59190611ad3565b600654610cc29190611b04565b90508093505050505b90565b610cd6610f09565b600073ffffffffffffffffffffffffffffffffffffffff168173ffffffffffffffffffffffffffffffffffffffff1603610d485760006040517f1e4fbdf7000000000000000000000000000000000000000000000000000000008152600401610d3f9190611834565b60405180910390fd5b610d5181610f90565b50565b610d5c610f09565b8060068190555050565b600033905090565b610d7b838383600161115a565b505050565b6000610d8c84846108f2565b90507fffffffffffffffffffffffffffffffffffffffffffffffffffffffffffffffff811015610e0f5781811015610dff578281836040517ffb8f41b2000000000000000000000000000000000000000000000000000000008152600401610df693929190611e89565b60405180910390fd5b610e0e8484848403600061115a565b5b50505050565b600073ffffffffffffffffffffffffffffffffffffffff168373ffffffffffffffffffffffffffffffffffffffff1603610e875760006040517f96c6fd1e000000000000000000000000000000000000000000000000000000008152600401610e7e9190611834565b60405180910390fd5b600073ffffffffffffffffffffffffffffffffffffffff168273ffffffffffffffffffffffffffffffffffffffff1603610ef95760006040517fec442f05000000000000000000000000000000000000000000000000000000008152600401610ef09190611834565b60405180910390fd5b610f04838383611331565b505050565b610f11610d66565b73ffffffffffffffffffffffffffffffffffffffff16610f2f610653565b73ffffffffffffffffffffffffffffffffffffffff1614610f8e57610f52610d66565b6040517f118cdaa7000000000000000000000000000000000000000000000000000000008152600401610f859190611834565b60405180910390fd5b565b6000600560009054906101000a900473ffffffffffffffffffffffffffffffffffffffff16905081600560006101000a81548173ffffffffffffffffffffffffffffffffffffffff021916908373ffffffffffffffffffffffffffffffffffffffff1602179055508173ffffffffffffffffffffffffffffffffffffffff168173ffffffffffffffffffffffffffffffffffffffff167f8be0079c531659141344cd1fd0a4f28419497f9722a3daafe3b4186f6b6457e060405160405180910390a35050565b600073ffffffffffffffffffffffffffffffffffffffff168273ffffffffffffffffffffffffffffffffffffffff16036110c85760006040517fec442f050000000000000000000000000000000000000000000000000000000081526004016110bf9190611834565b60405180910390fd5b6110d460008383611331565b5050565b600073ffffffffffffffffffffffffffffffffffffffff168273ffffffffffffffffffffffffffffffffffffffff160361114a5760006040517f96c6fd1e0000000000000000000000000000000000000000000000000000000081526004016111419190611834565b60405180910390fd5b61115682600083611331565b5050565b600073ffffffffffffffffffffffffffffffffffffffff168473ffffffffffffffffffffffffffffffffffffffff16036111cc5760006040517fe602df050000000000000000000000000000000000000000000000000000000081526004016111c39190611834565b60405180910390fd5b600073ffffffffffffffffffffffffffffffffffffffff168373ffffffffffffffffffffffffffffffffffffffff160361123e5760006040517f94280d620000000000000000000000000000000000000000000000000000000081526004016112359190611834565b60405180910390fd5b81600160008673ffffffffffffffffffffffffffffffffffffffff1673ffffffffffffffffffffffffffffffffffffffff16815260200190815260200160002060008573ffffffffffffffffffffffffffffffffffffffff1673ffffffffffffffffffffffffffffffffffffffff16815260200190815260200160002081905550801561132b578273ffffffffffffffffffffffffffffffffffffffff168473ffffffffffffffffffffffffffffffffffffffff167f8c5be1e5ebec7d5bd14f71427d1e84f3dd0314c0f7b2291e5b200ac8c7c3b925846040516113229190611726565b60405180910390a35b50505050565b600073ffffffffffffffffffffffffffffffffffffffff168373ffffffffffffffffffffffffffffffffffffffff16036113835780600260008282546113779190611b04565b92505081905550611456565b60008060008573ffffffffffffffffffffffffffffffffffffffff1673ffffffffffffffffffffffffffffffffffffffff1681526020019081526020016000205490508181101561140f578381836040517fe450d38c00000000000000000000000000000000000000000000000000000000815260040161140693929190611e89565b60405180910390fd5b8181036000808673ffffffffffffffffffffffffffffffffffffffff1673ffffffffffffffffffffffffffffffffffffffff16815260200190815260200160002081905550505b600073ffffffffffffffffffffffffffffffffffffffff168273ffffffffffffffffffffffffffffffffffffffff160361149f57806002600082825403925050819055506114ec565b806000808473ffffffffffffffffffffffffffffffffffffffff1673ffffffffffffffffffffffffffffffffffffffff168152602001908152602001600020600082825401925050819055505b8173ffffffffffffffffffffffffffffffffffffffff168373ffffffffffffffffffffffffffffffffffffffff167fddf252ad1be2c89b69c2b068fc378daa952ba7f163c4a11628f55a4df523b3ef836040516115499190611726565b60405180910390a3505050565b600081519050919050565b600082825260208201905092915050565b60005b83811015611590578082015181840152602081019050611575565b60008484015250505050565b6000601f19601f8301169050919050565b60006115b882611556565b6115c28185611561565b93506115d2818560208601611572565b6115db8161159c565b840191505092915050565b6000602082019050818103600083015261160081846115ad565b905092915050565b600080fd5b600073ffffffffffffffffffffffffffffffffffffffff82169050919050565b60006116388261160d565b9050919050565b6116488161162d565b811461165357600080fd5b50565b6000813590506116658161163f565b92915050565b6000819050919050565b61167e8161166b565b811461168957600080fd5b50565b60008135905061169b81611675565b92915050565b600080604083850312156116b8576116b7611608565b5b60006116c685828601611656565b92505060206116d78582860161168c565b9150509250929050565b60008115159050919050565b6116f6816116e1565b82525050565b600060208201905061171160008301846116ed565b92915050565b6117208161166b565b82525050565b600060208201905061173b6000830184611717565b92915050565b60008060006060848603121561175a57611759611608565b5b600061176886828701611656565b935050602061177986828701611656565b925050604061178a8682870161168c565b9150509250925092565b600060ff82169050919050565b6117aa81611794565b82525050565b60006020820190506117c560008301846117a1565b92915050565b6000602082840312156117e1576117e0611608565b5b60006117ef8482850161168c565b91505092915050565b60006020828403121561180e5761180d611608565b5b600061181c84828501611656565b91505092915050565b61182e8161162d565b82525050565b60006020820190506118496000830184611825565b92915050565b6000806040838503121561186657611865611608565b5b600061187485828601611656565b925050602061188585828601611656565b9150509250929050565b7f4e487b7100000000000000000000000000000000000000000000000000000000600052602260045260246000fd5b600060028204905060018216806118d657607f821691505b6020821081036118e9576118e861188f565b5b50919050565b7f466163746f72206d757374206265206174206c6561737420312e300000000000600082015250565b6000611925601b83611561565b9150611930826118ef565b602082019050919050565b6000602082019050818103600083015261195481611918565b9050919050565b7f4d7573742073656e642045544820746f2062757920746f6b656e730000000000600082015250565b6000611991601b83611561565b915061199c8261195b565b602082019050919050565b600060208201905081810360008301526119c081611984565b9050919050565b7f50726963652063616c63756c6174696f6e206572726f72000000000000000000600082015250565b60006119fd601783611561565b9150611a08826119c7565b602082019050919050565b60006020820190508181036000830152611a2c816119f0565b9050919050565b7f4e487b7100000000000000000000000000000000000000000000000000000000600052601160045260246000fd5b6000611a6d8261166b565b9150611a788361166b565b9250828202611a868161166b565b91508282048414831517611a9d57611a9c611a33565b5b5092915050565b7f4e487b7100000000000000000000000000000000000000000000000000000000600052601260045260246000fd5b6000611ade8261166b565b9150611ae98361166b565b925082611af957611af8611aa4565b5b828204905092915050565b6000611b0f8261166b565b9150611b1a8361166b565b9250828201905080821115611b3257611b31611a33565b5b92915050565b6000611b438261166b565b9150611b4e8361166b565b9250828203905081811115611b6657611b65611a33565b5b92915050565b7f4e6f7420656e6f756768204554482073656e7420746f2062757920616e79207460008201527f6f6b656e73000000000000000000000000000000000000000000000000000000602082015250565b6000611bc8602583611561565b9150611bd382611b6c565b604082019050919050565b60006020820190508181036000830152611bf781611bbb565b9050919050565b6000604082019050611c136000830185611717565b611c206020830184611717565b9392505050565b7f4d7573742073656c6c206120706f73697469766520616d6f756e740000000000600082015250565b6000611c5d601b83611561565b9150611c6882611c27565b602082019050919050565b60006020820190508181036000830152611c8c81611c50565b9050919050565b7f496e73756666696369656e7420746f6b656e2062616c616e6365000000000000600082015250565b6000611cc9601a83611561565b9150611cd482611c93565b602082019050919050565b60006020820190508181036000830152611cf881611cbc565b9050919050565b7f436f6e747261637420686173206e6f2045544820746f20706179000000000000600082015250565b6000611d35601a83611561565b9150611d4082611cff565b602082019050919050565b60006020820190508181036000830152611d6481611d28565b9050919050565b7f4e6f7420656e6f7567682045544820746f2072657475726e0000000000000000600082015250565b6000611da1601883611561565b9150611dac82611d6b565b602082019050919050565b60006020820190508181036000830152611dd081611d94565b9050919050565b600081905092915050565b50565b6000611df2600083611dd7565b9150611dfd82611de2565b600082019050919050565b6000611e1382611de5565b9150819050919050565b7f455448207472616e73666572206661696c656400000000000000000000000000600082015250565b6000611e53601383611561565b9150611e5e82611e1d565b602082019050919050565b60006020820190508181036000830152611e8281611e46565b9050919050565b6000606082019050611e9e6000830186611825565b611eab6020830185611717565b611eb86040830184611717565b94935050505056fea2646970667358221220f6b1a5b38f59f25fb4c9c61248629cd9dc6a487d5610fddd9f0451b230dbdaf564736f6c634300081c0033",
  "linkReferences": {},
  "deployedLinkReferences": {}
}